:0400000046EF00F0D7
:1000080000C016F001C015F0000E80B0010E026E9F
:100018001750000A09E10250000AD8B4176A0250C2
:10002800010A02E1010E176E1750010A16E102508B
:10003800000A0EE1020E176E006A80B6002A000E52
:10004800016E004A012A00B002D0809601D0808655
:100058000250010A02E1010E176E1750020AD8B4C5
:10006800176AF294D76A18C0D6FF16C000F015C0F8
:0400780001F0110082
:10007C000900F5CFE6FF0006FBE10106F9E11200ED
:10008C00176A480E186E070EC16E92809296910EEA
:10009C00D56EF294F28AF28ED76A18C0D6FFFFD7CB
:0200AC00FFD77C
:020000040030CA
:0D000100220F0EFF0181FF0FC00FE00F4026
:00000001FF
