:0400000042EF00F0DB
:1000080000C016F001C015F0F2A211D0F2921952F8
:100018000EE18280010E196E1BC000F0000E1BBE9F
:10002800FF0E016E00C0D7FF1AC0D6FFD58EF0A014
:1000380011D0F09019520EE1828C010E196E18C081
:1000480000F0000E18BEFF0E016E00C0D7FF17C0EB
:10005800D6FFD58EF2A405D0F2948290829C196ABC
:0C006800D59E16C000F015C001F011007C
:100074000900F5CFE6FF0006FBE10106F9E11200F5
:10008400DC0E176E0B0E186E196AE50E1A6E480E0A
:100094001B6E070EC16E938093829490949CF18C96
:1000A400F292F288F18AF090F086160ED56EF294F0
:0800B400F28AF28EFFD7FFD79C
:020000040030CA
:0D000100220F0EFF0181FF0FC00FE00F4026
:00000001FF
