:0400000047EF01F0D5
:100008000CC016F00DC015F0D5D800C019F081D875
:1000180081CF18F0F29016C00CF015C00DF0110049
:100028000F0E0C6E470E0D6E0D2EFED70C2EFCD744
:06003800000000001200B0
:06003E00000000001200AA
:0A004400210E0D6E0D2EFED71200E6
:10004E000B6A0A6A096A00500402F4CF09F0F3CF72
:10005E0008F001500502F4CF0BF0F3CF0AF0005078
:10006E000502F3500926F4500A22E86A0B220150C9
:10007E000402F3500926F4500A22E86A0B2208C043
:10008E0000F009C001F00AC002F00BC003F012002C
:10009E0028BE02D0839E01D0838E28BC02D0839CC2
:1000AE0001D0838C28BA02D0839A01D0838A28B8D3
:1000BE0002D0839801D0838817B002D0838401D0F8
:1000CE0083948386B5DF839628B602D0839E01D0B3
:1000DE00838E28B402D0839C01D0838C28B202D0A8
:1000EE00839A01D0838A28B002D0839801D0838866
:1000FE0017B002D0838401D08394838699DF8396D0
:0C010E0017A002D08ADF01D096DF12009B
:0C011A00179019C028F0BEDF17801200FB
:10012600959695949598959A959C959E8396839485
:10013600839E839C839A839874DF73DF72DF838A3E
:100146008388838679DF83966CDF838675DF839663
:1001560068DF838671DF839664DF839883866CDF2E
:1001660083965FDF838668DF8396839A838E838692
:1001760063DF839656DF839E838883865DDF83965F
:100186008398838659DF83964CDF838655DF839673
:100196008388838651DF839644DF839883864CDF8A
:1001A6008396838E838C838A8388838645DF8396B2
:0601B60038DF1780120083
:1001BC001A6A100E1B6E310E1C6E320E1D6E330E33
:1001CC001E6E340E1F6E350E206E360E216E370EDF
:1001DC00226E380E236E390E246E2A0E256E300ECA
:1001EC00266E230E276E1A0E0C6EF80E0D6E0D2E4B
:1001FC00FED70C2EFCD70000196A040E195C0BE21A
:10020C001B508114016E0150000A01E104D01B3611
:10021C001B90192AF2D7010E816EF00E8114016E1B
:10022C000150F00A08E081CF00F00036009000C0C9
:10023C0081FF1A2AF2D7816A060E0C6E300E0D6EF3
:10024C000D2EFED70C2EFCD70000F00E8114016E83
:10025C000150F00AF1E1030E006E000E016E19C0A0
:10026C0004F0000E056EEDDE1C0E0026000E0122C1
:10027C001A500024E96E000E0120EA6EEECF00F059
:02028C0012005E
:10028E00070EC16EF00E936E956A46DFF19E81CF1A
:0C029E0018F0F290F286F28EFFD7FFD726
:020000040030CA
:0D000100220F0EFF0181FF0FC00FE00F4026
:00000001FF
