:0400000072EF01F0AA
:100008000CC016F00DC015F000D981CF18F0F29091
:10001800010E196E010E1A6E00C01BF07ED816C0B4
:080028000CF015C00DF01100F1
:100030000F0E0C6E470E0D6E0D2EFED70C2EFCD73C
:06004000000000001200A8
:06004600000000001200A2
:0A004C00210E0D6E0D2EFED71200DE
:100056000B6A0A6A096A00500402F4CF09F0F3CF6A
:1000660008F001500502F4CF0BF0F3CF0AF0005070
:100076000502F3500926F4500A22E86A0B220150C1
:100086000402F3500926F4500A22E86A0B2208C03B
:1000960000F009C001F00AC002F00BC003F0120024
:1000A60028BE02D0839E01D0838E28BC02D0839CBA
:1000B60001D0838C28BA02D0839A01D0838A28B8CB
:1000C60002D0839801D0838817B002D0838401D0F0
:1000D60083948386B5DF839628B602D0839E01D0AB
:1000E600838E28B402D0839C01D0838C28B202D0A0
:1000F600839A01D0838A28B002D0839801D083885E
:1001060017B002D0838401D08394838699DF8396C7
:0C01160017A002D08ADF01D096DF120093
:100122000FD0800E196E19D0C00E196E16D0940E13
:10013200196E13D0D40E196E10D0800E196E0DD018
:100142001950010AEEE01950020AEEE01950030AB2
:10015200EEE01950040AEEE0F0D71A04006E1950CE
:10016200002600C019F0178000C028F09BDF17900E
:0A0172001BC028F097DF1780120071
:10017C00959695949598959A959C959E839683942F
:10018C00839E839C839A83984DDF4CDF4BDF838A5D
:10019C008388838652DF839645DF83864EDF839682
:1001AC0041DF83864ADF83963DDF8398838645DF74
:1001BC00839638DF838641DF8396839A838E83868A
:1001CC003CDF83962FDF839E8388838636DF83967E
:1001DC008398838632DF839625DF83862EDF839692
:1001EC00838883862ADF83961DDF8398838625DFA9
:1001FC008396838E838C838A838883861EDF839683
:06020C0011DF1780120053
:100212001A6A100E1B6E310E1C6E320E1D6E330EDC
:100222001E6E340E1F6E350E206E360E216E370E88
:10023200226E380E236E390E246E2A0E256E300E73
:10024200266E230E276E1A0E0C6EF80E0D6E0D2EF4
:10025200FED70C2EFCD70000196A040E195C0BE2C3
:100262001B508114016E0150000A01E104D01B36BB
:100272001B90192AF2D7010E816EF00E8114016EC5
:100282000150F00A08E081CF00F00036009000C073
:1002920081FF1A2AF2D7816A060E0C6E300E0D6E9D
:1002A2000D2EFED70C2EFCD70000F00E8114016E2D
:1002B2000150F00AF1E1030E006E000E016E19C04A
:1002C20004F0000E056EC6DE1C0E0026000E012292
:1002D2001A500024E96E000E0120EA6EEECF00F003
:0202E200120008
:1002E400070EC16EF00E936E816AF19E81CF18F0F5
:0C02F400F290F286F28E40DFFFD7FFD7B9
:020000040030CA
:0D000100220F0EFF0181FF0FC00FE00F4026
:00000001FF
