:0400000034EF07F0E2
:1000080000C019F001C018F002C017F00CC016F0BB
:100018000DC015F0F2A20ED0F292000E201802E1E7
:10002800020E1F1803E11F6A206A02D01F4A202A05
:10003800010E1E6EF2A40DD0F2941DC000F0000E49
:100048001DBEFF0E016E00C0D7FF1CC0D6FFD58EA7
:10005800C2849EAC40D09E9CC3CF28F0000E296E6F
:10006800C4CF01F0006A285000262950012200C0A0
:1000780028F001C029F004EC05F0000E046E000E13
:10008800056E200E066E770E076E35EC06F000C082
:1000980023F001C024F002C025F003C026F0000EB2
:1000A800046E000E056E480E066E850E076E35EC62
:1000B80006F0000E046E000E056E480E066E840EE5
:1000C800076E01EC05F08EEC05F000C021F001C0D0
:1000D80022F0010E1E6E1E525EE0000E201802E194
:1000E800000E1F1806E121C01AF022C01BF0430EB3
:1000F800276E000E201802E1020E1F1808E1110EEB
:1001080021241A6E010E22201B6E4B0E276E000E44
:10011800201802E1010E1F1821E121C000F022C0C1
:1001280001F004EC05F0660E046E660E056E660EB0
:10013800066E7F0E076E35EC06F0000E046E000E9C
:10014800056E000E066E840E076EB1D98EEC05F0B2
:1001580000C01AF001C01BF0460E276E1E6A1AC0B6
:1001680035F01BC036F02B0E376E000E386EC8EC1B
:1001780006F0010E356E010E366E2B0E376E000E30
:10018800386EF7EC05F0DF0E3F6EFBEC04F027C08D
:100198003FF0FBEC04F019C000F018C001F017C0E4
:0C01A80002F016C00CF015C00DF01100A4
:0601B40000000000120033
:1001BA000B820BAEE7EF00F0036802680168006883
:0801CA000A360232FF0E12009A
:0E01D200026A016A006A086A036A000E1200DF
:1001E0000F0E0C6E470E0D6E0D2EFED70C2EFCD78B
:0601F000000000001200F7
:0801F6000AAE029E000E120089
:0A01FE00210E0D6E0D2EFED712002B
:100208000B840BAE0FEF01F0010E036E026A016A58
:0A021800006A0A360232FF0E1200DF
:100222000CB053EF01F00CA2F9EF01F00E6A000ED0
:1002320002646AEF01F0F00E0214D8A435EF01F067
:10024200023A01380F0B02260138F00B016E00381A
:100252000F0B01260038F00B006E08380F0B00263A
:100262000838F00B086E0E84D89002BE4EEF01F0F3
:1002720008360036013602360E2A02BE4EEF01F073
:1002820008360036013602360E2A02BE4EEF01F063
:1002920008360036013602360E2A0E500364EFEF9E
:1002A20001F0035E0BBC08AEF4EF01F0D880800EC3
:1002B20008640030000E002201220222D8A0F4EFCE
:1002C20001F0023201320032034AF9EF01F0F4EF99
:1002D20001F001C002F000C001F008C000F0086A9D
:1002E200000E0E860264A1EF01F0F00E0214D8A4F3
:1002F20089EF01F0023A01380F0B02260138F00BA8
:10030200016E00380F0B01260038F00B006E0E84D0
:10031200D89002BE4EEF01F00036013602360E2AA8
:1003220002BE4EEF01F00036013602360E2A02BE40
:100332004EEF01F00036013602360E2A4EEF01F082
:1003420001C002F000C001F0006A000E0E960E8895
:100352000264CEEF01F0F00E0214D8A4B9EF01F05E
:10036200023A01380F0B02260138F00B016E0E849F
:10037200D89002BE4EEF01F0013602360E2A02BEBE
:100382004EEF01F0013602360E2A02BE4EEF01F0A8
:10039200013602360E2A4EEF01F001C002F0016A68
:1003A200000E0E860264FEEF01F0F00E0214D8A4D5
:1003B200DDEF01F0023A0E84D89002BE4EEF01F05A
:1003C20002360E2A02BE4EEF01F002360E2A02BE9D
:1003D2004EEF01F002360E2A4EEF01F0010E0C6EC6
:1003E20012DF01EF02F0020E0C6E04DF01EF02F0E9
:1003F200040E0C6EE1DE01EF02F0080E0C6EE8DE78
:020402001200E6
:1004040046BE02D0839E01D0838E46BC02D0839C1C
:1004140001D0838C46BA02D0839A01D0838A46B82D
:1004240002D0839801D083882AB002D0838401D07B
:1004340083948386BDDE839646B602D0839E01D024
:10044400838E46B402D0839C01D0838C46B202D002
:10045400839A01D0838A46B002D0839801D08388DE
:100464002AB002D0838401D083948386A1DE83964C
:0C0474002AA002D0B3DE01D0C0DE1200CE
:10048000086A096A100E0C6E0134083609360450E9
:10049000085E0550D8A0053C095ED8B007D00450CE
:1004A00008260550D8B0053C0926D89000360136FC
:0604B0000C2EEAD7120039
:1004B600025006180E6E086A096A0B6A0350076432
:1004C6004EEF03F006500A6E068E028E03500B6E38
:1004D6000750036E000E0B649EEF02F00B50075E92
:1004E600D8B43FEF03F0070E07640DEF03F0075E85
:1004F60000C008F001C000F002C001F0026A074E19
:100506003FEF03F00764E2EF02F0075E00C008F079
:1005160001C000F0016A074E3FEF03F00764C0EF29
:1005260002F0075E00C008F0006A074E3FEF03F0D6
:100536000764A7EF02F00AC002F005C001F004C08C
:1005460000F0086A68EF04F0030E0764B2EF02F0E9
:10055600075E08380F0B086E074E3FEF03F0D89082
:100566000832074E3FEF03F0D8900832074E3FEFB0
:1005760003F0D89008323FEF03F0030E0764D1EF83
:1005860002F0075E08380F0B086E0038F00B0826DD
:1005960000380F0B006E074E3FEF03F0D890003285
:1005A6000832074E3FEF03F0D89000320832074E6C
:1005B6003FEF03F0D890003208323FEF03F0030E0E
:1005C6000764F9EF02F0075E08380F0B086E003873
:1005D600F00B082600380F0B006E0138F00B0026D2
:1005E60001380F0B016E074E3FEF03F0D890013232
:1005F60000320832074E3FEF03F0D8900132003246
:100606000832074E3FEF03F0D8900132003208322D
:100616003FEF03F0030E07642AEF03F0075E083886
:100626000F0B086E0038F00B082600380F0B006E13
:100636000138F00B002601380F0B016E0238F00B63
:10064600012602380F0B026E074E3FEF03F0D890DB
:100656000232013200320832074E3FEF03F0D890E3
:100666000232013200320832074E3FEF03F0D890D3
:100676000232013200320832096A000E0EAE33EF42
:1006860004F0081E001E011E021E082A0022012276
:10069600022233EF04F00750D8A454EF03F068EFBA
:1006A60004F0096A02C00AF0028E068E0750035C47
:1006B600076ED8B426EF04F0070E0764F4EF03F0D4
:1006C600075E0450096E0550046E0650056E066AF4
:1006D600074E26EF04F0070E0764C9EF03F0075E26
:1006E6000450096E0550046E056A074E26EF04F0A5
:1006F600070E0764A7EF03F0075E0450096E046A4D
:10070600074E26EF04F0070E07648EEF03F00AC0CB
:1007160002F068EF04F0030E076499EF03F0075E3A
:1007260009380F0B096E074E26EF04F0D8900932F0
:10073600074E26EF04F0D8900932074E26EF04F054
:10074600D890093226EF04F0030E0764B8EF03F0E1
:10075600075E09380F0B096E0438F00B09260438BA
:100766000F0B046E074E26EF04F0D89004320932C0
:10077600074E26EF04F0D89004320932074E26EFD2
:1007860004F0D8900432093226EF04F0030E076411
:10079600E0EF03F0075E09380F0B096E0438F00B23
:1007A600092604380F0B046E0538F00B04260538AD
:1007B6000F0B056E074E26EF04F0D8900532043273
:1007C6000932074E26EF04F0D8900532043209327A
:1007D600074E26EF04F0D89005320432093226EF90
:1007E60004F0030E076411EF04F0075E09380F0BDF
:1007F600096E0438F00B092604380F0B046E053811
:10080600F00B042605380F0B056E0638F00B05268F
:1008160006380F0B066E074E26EF04F0D890063208
:10082600053204320932074E26EF04F0D89006321C
:10083600053204320932074E26EF04F0D89006320C
:10084600053204320932086A000E0EAE33EF04F0A8
:10085600091E041E051E061E092A0422052206225A
:100866000950082604500022055001220650022293
:100876000EBE4AEF04F0D8A059EF04F0023201325E
:1008860000320832033E59EF04F063EF04F0D8B0AB
:100896005EEF04F0000E081E001E011E021E082A4E
:1008A6000022012202220A7E5EEF04F0010E0C6E87
:1008B600B5DC6AEF04F0020E0C6EB0DC6AEF04F0F1
:1008C600040E0C6E77DC6AEF04F0000E0C6E12005C
:1008D600436A050E435C0AE243504124E16E000E72
:1008E6004220E26E200EE66E432AF3D7435041249F
:1008F600E16E000E4220E26EE66A43064350412452
:10090600446E000E4220456E0A0E046E000E056E01
:100916003FC000F040C001F0B0DD08C000F009C0E3
:1009260001F0300E002644C0E1FF45C0E2FF00C0E2
:10093600E6FF0A0E046E000E056E3FC000F040C0D2
:1009460001F09BDD00C03FF001C040F0000E011831
:1009560002E1000E001801E102D04306CFD71200D3
:100966000B800BAEBFEF04F0026A0AAEFF0E026EFA
:0C097600016E006E0A360232FF0E120005
:100982000C6A0E6A0250D8A4DAEF04F001C002F039
:1009920000C001F0006A0E860250D8A4DAEF04F01B
:1009A20001C002F0016A0E960E880250D8B4ECEF34
:1009B20004F00E50035ED8A4D8A0F2EF04F0D89051
:1009C20002BEF7EF04F0003601360236032EE1EFE5
:1009D20004F0F2EF04F0010E0C6EE9EC00F0FAEF15
:1009E20004F0020E0C6E0FDCFAEF04F0040E0C6E33
:0409F20001DC120012
:0C09F6002A903FC046F003DD2A8012006A
:060A0200067E58DD120023
:100A080000C008F00150006E016A026A036A0B6AAE
:100A18000C6A016A026A036A960E036E0A6A00AEDD
:100A28001CEF05F0081E001E082AD8B4002A0A8EFA
:100A380000C001F008C000F0086A026A9EDF1200D8
:100A48000900F5CFE6FF0006FBE10106F9E1120017
:100A5800959695949598959A959C959E839683944A
:100A6800839E839C839A8398F0EC00F0F0EC00F06E
:100A7800F0EC00F0838A83888386DAEC00F08396B2
:100A8800F0EC00F08386DAEC00F08396F0EC00F0EE
:100A98008386DAEC00F08396F0EC00F08398838686
:100AA800DAEC00F08396F0EC00F08386DAEC00F0E4
:100AB8008396839A838E8386DAEC00F08396F0EC33
:100AC80000F0839E83888386DAEC00F0839683980F
:100AD8008386DAEC00F08396F0EC00F08386DAEC9B
:100AE80000F0839683888386DAEC00F08396F0EC36
:100AF80000F083988386DAEC00F08396838E838CEB
:100B0800838A83888386DAEC00F08396F0EC00F021
:040B18002A8012001D
:100B1C000B6A0350D8B4D4EF05F002500A6E028E63
:100B2C008E0E035E03AED8EF05F0036C080E035C6B
:100B3C00D8A0B3EF05F0036E013602C001F0026AD3
:100B4C00080E035CD8A0B3EF05F0036E0136016A02
:100B5C000350D8A4D890BDEF05F00350D8B4BDEF26
:100B6C0005F0D89002320132032EB7EF05F00BBC22
:100B7C0001A0CAEF05F0D8A0CAEF05F0012AD8B43D
:100B8C00022A02BEE7EF05F00AAEECEF05F0021EFA
:100B9C00011E012AD8B4022AECEF05F0026A016AA0
:100BAC00ECEF05F00B800BAEF0EF05F0026A0AAE2D
:100BBC00F0EF05F0FF0E026E016E0A360232F0EF16
:100BCC0005F0010E0C6EC9DEF2EF05F0000E0C6E96
:100BDC00F2EF05F0FF0E0C6E0150006E0250016E2C
:020BEC001200F5
:100BEE000FD0800E356E19D0C00E356E16D0940E05
:100BFE00356E13D0D40E356E10D0800E356E0DD0EE
:100C0E003550010AEEE03550020AEEE03550030A87
:100C1E00EEE03550040AEEE0F0D73604006E3550A3
:100C2E00002600C035F000C046F002EC02F02A901B
:100C3E00396A39503724E96E000E3820EA6EEE52CA
:100C4E000BE039503724E96E000E3820EA6EEECFF5
:0C0C5E003FF0CADE392AEDD72A801200D0
:100C6A00086A096A000E07620364BAEF06F00250C6
:100C7A0006180A6E075003267E0ED8A04BEF06F020
:100C8A00035ED8B0BFEF06F04FEF06F0035ED8A0C0
:100C9A00C4EF06F0028E068E02C00EF001C00BF001
:100CAA0000C00DF000500402F4CF0CF00150050210
:100CBA00F4CF00F0F3CF08F00402F3500C26F450FE
:100CCA000822000E00220D500502F3500C26F450A3
:100CDA000822000E002202500402F3500826F450A3
:100CEA00002202500502016A000E0122F35000267A
:100CFA00F45001220D500602F3500826F450002247
:100D0A00026A000E012202220B500602F35000264C
:100D1A00F4500122000E02220E500602F350012660
:100D2A00F450022202BEA2EF06F00836003601365F
:100D3A0002360306D8B4C4EF06F0B5EF06F0D88041
:100D4A00800E08640030000E002201220222D8A080
:100D5A00B5EF06F0023201320032034ABFEF06F065
:100D6A000AAE029E000EC7EF06F0010EE9EC00F093
:100D7A00C7EF06F0020EDDEC00F0C7EF06F0040E36
:060D8A0004EC01F0120070
:100D90003B6A3C6A35C03DF036C03EF0800E3618E6
:100DA000006E800E005C02E1000E355C0BE2010E6D
:100DB0003B6E000E3C6E355000083D6E36C03EF076
:100DC000000E3E563DC03FF03EC040F037C041F0FF
:100DD00038C042F080DD060E396E000E3A6E000E0D
:100DE000006E3A50005C02E13950000819E23950B7
:100DF0003724E16E3A503820E26E010E395C006E05
:100E0000000E3A58016E00503724E96E0150382028
:100E1000EA6EEECFE6FF010E395E000E3A5ADFD7DA
:100E200037C0E1FF38C0E2FF200EE66E3B503C10B9
:100E30001AE0396A3A6A39503724E96E3A50382054
:100E4000EA6EEE50200A03E1394A3A2AF4D7010E3D
:100E5000395E000E3A5A39503724E16E3A50382044
:080E6000E26E2D0EE66E120099
:100E68001A6A1B6A840E1C6E6D0E1D6E1E6A1F6A3E
:100E7800206A92869380F292F288F28C150ED56ED3
:100E8800F294F28A1DC000F0000E1DBEFF0E016E26
:100E980000C0D7FF1CC0D6FF990EC26E840EC16E6B
:100EA8009E9C9D8CF28EF28CD3DDD58EC284FFD7AA
:020EB800FFD762
:020000040030CA
:0D000100220F0EFF0181FF0FC00FE00F4026
:00000001FF
