:0400000056EF00F0C7
:1000080000C017F001C016F002C015F0F2A43BD0F2
:10001800F2941DC000F0000E1DBEFF0E016E00C060
:10002800D7FF1CC0D6FF1DD081A607D0010E1A6EBF
:10003800000E1B6E8080186A196A25D0000E1918E8
:1000480002E11E0E181805E1020E1A6E000E1B6E54
:100058008090184A192A17D081B602D01A6A1B6AEA
:1000680012D0000E1B1802E1000E1A18DDE0000E77
:100078001B1802E1010E1A18E1E0000E1B1802E13C
:10008800020E1A18E9E017C000F016C001F015C0FA
:0400980002F0110061
:10009C000900F5CFE6FF0006FBE10106F9E11200CD
:1000AC00186A196A1A6A1B6AB00E1C6E3C0E1D6E19
:1000BC0092909386070EC16EF294F28A110ED56E51
:1000CC00F28E1DC000F0000E1DBEFF0E016E00C0B2
:0E00DC00D7FF1CC0D6FFD58E0000FED7FFD781
:020000040030CA
:0D000100220F0EFF0181FF0FC00FE00F4026
:00000001FF
