:0400000015EF00F008
:100008001552010ED8A4000E156E81CF16F0F2908D
:020018001100D5
:10001A000900F5CFE6FF0006FBE10106F9E112004F
:10002A00156A070EC16E938A9290F19E81CF16F0DF
:10003A00F290F286F28E1550010A20E1FF0E806ED0
:10004A00060E0B6E130E0C6EAD0E0D6E0D2EFED738
:10005A000C2EFCD70B2EFAD700000000806A060E81
:10006A000B6E130E0C6EAD0E0D6E0D2EFED70C2EF2
:10007A00FCD70B2EFAD70000000001D08090DBD706
:02008A00FFD79E
:020000040030CA
:0D000100220F0EFF0181FF0FC00FE00F4026
:00000001FF
