:040000007EEF00F09F
:1000080000C017F001C016F002C015F0F2A427D006
:100018008290060E026E24C000F025C001F0025046
:1000280007E001320032019E01BC018EFF0FF8D7B4
:1000380000C026F04ED824C026F026362690263654
:10004800269047D8828019C000F0000E19BEFF0E16
:10005800016E00C0D7FF18C0D6FFD58EF2949EACB3
:1000680019D0C4CF01F0006AC3500024026E000EFC
:100078000120036E02C022F003C023F002C024F066
:1000880003C025F0243624902536243624902536BE
:10009800C2849E9C17C000F016C001F015C002F083
:0200A800110045
:1000AA00FF0E1E6EFF0E1F6EFF0E206EFF0E216EDC
:1000BA00DA0E1A6E000E1B6E260E1C6E000E1D6ED8
:1000CA00949A94969488C66A400EC76EC68A12009D
:1000DA0026C0C9FFC7B002D00000FCD7C9CF00F0C4
:0200EA00120002
:1000EC000900F5CFE6FF0006FBE10106F9E112007D
:1000FC00170E186EFC0E196E92849490100ED56E1D
:10010C00510EC26EC00EC16EF294F28A9E9C9D8CF2
:10011C00F28CF28E19C000F0000E19BEFF0E016EAB
:10012C0000C0D7FF18C0D6FFBADFD58EC284FFD768
:02013C00FFD7EB
:020000040030CA
:0D000100220F0EFF0181FF0FC00FE00F4026
:00000001FF
