:0400000042EF00F0DB
:1000080000C017F001C016F002C015F0F2A427D006
:10001800F2941AC000F0000E1ABEFF0E016E00C066
:10002800D7FF19C0D6FF15D080AA02D0010E186ECE
:1000380016D080BA0DD0006A82B0002A000E016E78
:10004800004A012A00B002D0829001D08280186A4A
:1000580006D01850000AE8E01850010AEAE017C074
:0C00680000F016C001F015C002F01100FD
:100074000900F5CFE6FF0006FBE10106F9E11200F5
:10008400186AB00E196E3C0E1A6E070EC16E928A73
:1000940094908290F294F28A110ED56EF28E1AC068
:1000A40000F0000E1ABEFF0E016E00C0D7FF19C08B
:0A00B400D6FFD58E0000FED7FFD75F
:020000040030CA
:0D000100220F0EFF0181FF0FC00FE00F4026
:00000001FF
