:040000003EEF05F0DA
:1000080000C019F001C018F002C017F00CC016F0BB
:100018000DC015F0F2A40DD0F29425C000F0000E2A
:1000280025BEFF0E016E00C0D7FF24C0D6FFD58EB7
:10003800C2849EAC38D09E9CC3CF2BF0000E2C6E91
:10004800C4CF01F0006A2B5000262C50012200C0BA
:100058002BF001C02CF0A5DA000E046E000E056E20
:10006800200E066E770E076E05D900C026F001C077
:1000780027F002C028F003C029F000C037F001C003
:1000880038F002C039F003C03AF02D0E3B6E000E76
:100098003C6EE4DA010E376E010E386E2D0E396EA5
:1000A800000E3A6E9EDA19C000F018C001F017C0B1
:0C00B80002F016C00CF015C00DF0110095
:1000C4000F0E0C6E470E0D6E0D2EFED70C2EFCD7A8
:0600D40000000000120014
:0600DA000000000012000E
:0A00E000210E0D6E0D2EFED712004A
:1000EA000B820BAE7FEF00F00368026801680068BC
:0800FA000A360232FF0E12006B
:100102000B840BAE8CEF00F0010E036E026A016AE3
:0A011200006A0A360232FF0E1200E6
:08011C000AAE029E000E120063
:1001240049BE02D0839E01D0838E49BC02D0839CF9
:1001340001D0838C49BA02D0839A01D0838A49B80A
:1001440002D0839801D083882AB002D0838401D05E
:1001540083948386C0DF839649B602D0839E01D000
:10016400838E49B402D0839C01D0838C49B202D0DF
:10017400839A01D0838A49B002D0839801D08388BE
:100184002AB002D0838401D083948386A4DF83962B
:0C0194002AA002D095DF01D0A1DF1200EC
:0E01A000026A016A006A086A036A000E120011
:1001AE000A6A0350D8A40A800750D8A40A820A50BB
:1001BE00D8B43AEF01F0030AD8B4F3EF00F00AB066
:1001CE00EEEF00F006AE38EF01F036EF01F002AEC2
:1001DE0036EF01F038EF01F00250800B0A6E029EEE
:1001EE000650800B069E0A18D8B404EF01F00A5090
:1001FE00D8B436EF01F038EF01F00750035CD8B4F5
:10020E000EEF01F0D8A02AEF01F030EF01F006500A
:10021E00025CD8B418EF01F0D8A02AEF01F030EF4D
:10022E0001F00550015CD8B422EF01F0D8A02AEFFE
:10023E0001F030EF01F00450005CD8B43AEF01F059
:10024E00D8B030EF01F00A52D8B438EF01F036EFE3
:10025E0001F00A52D8B436EF01F038EF01F0D88031
:0E026E001200D8901200D880D884120012001E
:10027C00086A096A000E07620364C3EF01F00250BA
:10028C0006180A6E075003267E0ED8A054EF01F014
:10029C00035ED8B0C7EF01F058EF01F0035ED8A0B1
:1002AC00CBEF01F0028E068E02C00EF001C00BF0F7
:1002BC0000C00DF000500402F4CF0CF00150050208
:1002CC00F4CF00F0F3CF08F00402F3500C26F450F6
:1002DC000822000E00220D500502F3500C26F4509B
:1002EC000822000E002202500402F3500826F4509B
:1002FC00002202500502016A000E0122F350002672
:10030C00F45001220D500602F3500826F45000223E
:10031C00026A000E012202220B500602F350002644
:10032C00F4500122000E02220E500602F350012658
:10033C00F450022202BEABEF01F008360036013653
:10034C0002360306D8B4CBEF01F0BEEF01F0D88033
:10035C00800E08640030000E002201220222D8A078
:10036C00BEEF01F0023201320032034AC7EF01F056
:10037C000AAE029E000ECDEF01F0010E0BDFCDEFA9
:10038C0001F0020EACDECDEF01F0040EB4DE120073
:0C039C002A9045C049F0C0DE2A80120003
:1003A8000D6A086A0050D8B4000C04180A6E0ABE18
:1003B8000D1E0B6A04AE02D0041E042A00AE02D041
:1003C800001E002A005004100A6E0ABE1FD00450F6
:1003D800085E003600340836045008260036060E3B
:1003E8000C6E00340836045000B0085E00A00826E1
:1003F80000360C2EF6D700A008260BB015D00DAE8F
:10040800000C001E002A081E082A000C04AE09D0A1
:1004180000BE04D00050086E006AF1D7006A002AB6
:10042800000C001E0B2AD3D7082A0450085CD8A455
:0E043800E6D7086A002A00AEE2D7FF0C1200D9
:100446000C6A0E6A0250D8A43CEF02F001C002F01A
:1004560000C001F0006A0E860250D8A43CEF02F0FC
:1004660001C002F0016A0E960E880250D8B44EEF13
:1004760002F00E50035ED8A4D8A053EF02F0D89035
:1004860002BE58EF02F0003601360236032E43EF65
:1004960002F053EF02F0010E0C6E7FDE5BEF02F00E
:1004A600020E0C6E2BDE5BEF02F0040E0C6E33DEDA
:0204B600120032
:1004B80045C004F046C005F004C002F005C003F0D2
:1004C800044A052A47C000F048C001F0474A482AB4
:1004D80000C0E9FF01C0EAFF02C0E1FF03C0E2FF7C
:1004E800EECFE6FF02C0E9FF03C0EAFFEE5201E0EB
:0C04F800E3D745C000F046C001F0120040
:10050400959695949598959A959C959E83968394A3
:10051400839E839C839A8398D3DDD2DDD1DD838A45
:1005240083888386D8DD8396CBDD8386D4DD83966A
:10053400C7DD8386D0DD8396C3DD83988386CBDDD8
:100544008396BEDD8386C7DD8396839A838E8386F6
:10055400C2DD8396B5DD839E83888386BCDD839666
:1005640083988386B8DD8396ABDD8386B4DD83967A
:1005740083888386B0DD8396A3DD83988386ABDD91
:100584008396838E838C838A83888386A4DD839673
:0605940097DD2A80120031
:10059A000900F5CFE6FF0006FBE10106F9E11200CA
:1005AA0000C008F00150006E016A026A036A0B6A11
:1005BA000C6A016A026A036A960E036E0A6A00AE40
:1005CA00EDEF02F0081E001E082AD8B4002A0A8E8F
:1005DA0000C001F008C000F0086A026A2FDF1200AA
:1005EA000FD0800E376E19D0C00E376E16D0940E0B
:1005FA00376E13D0D40E376E10D0800E376E0DD0F2
:10060A003750010AEEE03750020AEEE03750030A8B
:10061A00EEE03750040AEEE0F0D73804006E3750A7
:10062A00002600C037F000C049F077DD2A903B6A07
:10063A003B503924E96E000E3A20EA6EEE520BE086
:10064A003B503924E96E000E3A20EA6EEECF45F0AF
:0A065A00A0DE3B2AEDD72A80120033
:10066400436A446A37C03FF038C040F039C041F0B3
:100674003AC042F04250FF0A08E14150FF0A05E146
:100684004050FF0A02E13F50FF0A0CE13BC045F035
:100694003CC046F01A0E476E000E486E0BDF030E88
:1006A400006EE9D1010E3D6E41AE0ED0800E4118B0
:1006B400006E00C041F03D2A3BC0E1FF3CC0E2FFB8
:1006C4002D0EE66E3B4A3C2A000E006E421808E1ED
:1006D4000050411805E10050401802E13F50000A63
:1006E4000BE13BC045F03CC046F01E0E476E000EC9
:1006F400486EE0DE006ABFD14250FF0A08E1415073
:10070400000A05E14050000A02E13F50000A0CE1F2
:100714003BC045F03CC046F0200E476E000E486ECC
:10072400C9DE3DC000F0A7D1000E046E000E056EB8
:10073400000E066E7F0E076E3FC000F040C001F051
:1007440041C002F042C003F030DD010ED8B0000E0B
:10075400006E00521BE03FC000F040C001F041C0F9
:1007640002F042C003F0000E046E000E056E200E6F
:10077400066E820E076E80DD00C03FF001C040F0BF
:1007840002C041F003C042F04406CED7000E046E0E
:10079400000E056E200E066E820E076E3FC000F03E
:1007A40040C001F041C002F042C003F0FEDC000E84
:1007B400D8B0010E006E00521BE03FC000F040C0F4
:1007C40001F041C002F042C003F0CD0E046ECC0E25
:1007D400056E4C0E066E7B0E076E4EDD00C03FF0BC
:1007E40001C040F002C041F003C042F0442ACED719
:1007F400FF0E3F14086EFF0E4014096E7F0E411465
:100804000A6E000E42140B6E08C004F009C005F015
:100814000AC006F00BC007F004360490053606360D
:100824000736000E3F14006E000E4014016E000ED9
:100834004114026EFF0E4214036E00C03FF001C06B
:1008440040F002C041F003C042F004503F10006E7B
:1008540005504010016E06504110026E07504210C0
:10086400036E00C03FF001C040F002C041F003C07D
:1008740042F07F0E425C006E00C03EF0010E426EFC
:1008840000C004F03FC000F040C001F041C002F0DD
:1008940042C003F0045007E00036009001360236EF
:1008A4000336FF0FF8D700C03FF001C040F002C08C
:1008B40041F003C042F03BC0E1FF3CC0E2FF4250C4
:1008C400300FE66E3B4A3C2A800E4418006E800EC0
:1008D400010A005C08E3800E060A006E800E4418CC
:1008E400005C01E30AD03BC0E1FF3CC0E2FF2E0EF6
:1008F400E66E3B4A3C2A010E436E060E3E6E3E50A7
:10090400000A54E0426A3FC000F040C001F041C018
:1009140002F042C003F0003600900136023603367E
:10092400003600900136023603363F500026405010
:100934000122415002224250032200C03FF001C074
:1009440040F002C041F003C042F03FC000F040C09C
:1009540001F041C002F042C003F0003600900136BD
:100964000236033600C03FF001C040F002C041F03F
:1009740003C042F03BC0E1FF3CC0E2FF4250300FF5
:10098400E66E3B4A3C2A4350000A0EE144064450BA
:10099400000A0AE13BC0E1FF3CC0E2FF2E0EE66E16
:1009A4003B4A3C2A010E436E3E06A9D7FF0E3B2468
:1009B400E96EFF0E3C20EA6EEE50300A05E1010EAE
:1009C4003B5E000E3C5AF2D7FF0E3B24E96EFF0E4D
:1009D4003C20EA6EEE502E0A04E1010E3B5E000E4E
:1009E4003C5A4450000A41E03BC0E1FF3CC0E2FFF6
:1009F400650EE66E3B4A3C2A800E4418006E800E5B
:100A0400000A005C0BE23BC0E1FF3CC0E2FF2D0E9C
:100A1400E66E3B4A3C2A44500008446E44C03EF013
:100A2400800E090A006E800E4418005C0EE20A0E65
:100A3400046E3EC000F0B6DC3BC0E1FF3CC0E2FF08
:100A44000050300FE66E3B4A3C2A0A0E046E3EC04C
:100A540000F0A8DC08C000F03BC0E1FF3CC0E2FFAE
:100A64000050300FE66E3B4A3C2A3BC0E1FF3CC0DD
:080A7400E2FFE66A006A1200CD
:100A7C0062EC05F09286140ED56EF294F28A25C0C3
:100A8C0000F0000E25BEFF0E016E00C0D7FF24C083
:100A9C00D6FF840EC16E990EC26E9E9C9D8CF28CFC
:0C0AAC00F28E2ADDC284D58EFFD7FFD762
:100AC40010EE1AF00C0E006E010E016EB80EF66EEA
:0E0AD4000A0EF76E000EF86ECDEC02F0120066
:040AB8004E614E003D
:020ABC00300008
:040ABE00494E460057
:020AC200DC0B4B
:020000040030CA
:0D000100220F0EFF0181FF0FC00FE00F4026
:00000001FF
