:0400000048EF00F0D5
:1000080000C017F001C016F002C015F0F2A42DD000
:10001800F2941AC000F0000E1ABEFF0E016E00C066
:10002800D7FF19C0D6FF15D080AA03D0010E186ECD
:1000380082801BD080BA02D0020E186E16D080AA19
:1000480002D0030E186E11D080BA02D0186A8290BE
:100058000CD01850000AE8E01850010AEBE01850DC
:10006800020AEDE01850030AEFE017C000F016C0CE
:0800780001F015C002F01100B7
:100080000900F5CFE6FF0006FBE10106F9E11200E9
:10009000186AB00E196E3C0E1A6E070EC16E928A67
:1000A0009490F294F28A110ED56EF28E1AC000F07E
:1000B000000E1ABEFF0E016E00C0D7FF19C0D6FF9A
:0800C000D58E0000FED7FFD72A
:020000040030CA
:0D000100220F0EFF0181FF0FC00FE00F4026
:00000001FF
