:040000004EEF00F0CF
:1000080000C017F001C016F002C015F0F2A433D0FA
:10001800F2941BC000F0000E1BBEFF0E016E00C064
:10002800D7FF1AC0D6FF1BD080A405D0186A010ECE
:10003800196E818281881FD0182A1850320A03E16C
:100048008198020E196E17D0182A1850640A03E115
:100058008192030E196E0FD080A4196A0CD0195022
:10006800000AE2E01950010AE7E01950020AECE040
:100078001950030AF1E017C000F016C001F015C0CE
:0400880002F0110071
:10008C000900F5CFE6FF0006FBE10106F9E11200DD
:10009C00186A196AB00E1A6E3C0E1B6E9284936A23
:1000AC00070EC16EF294F28A110ED56EF28E1BC041
:1000BC0000F0000E1BBEFF0E016E00C0D7FF1AC071
:0A00CC00D6FFD58E0000FED7FFD747
:020000040030CA
:0D000100220F0EFF0181FF0FC00FE00F4026
:00000001FF
