:0400000059EF01F0C3
:1000080000C017F001C016F00CC015F0F2A00DD01A
:10001800000E81BA010E2E6E2050000A04E12E5007
:10002800010AD8B41F2A2EC020F01FC02FF0210EBD
:10003800306E000E316E70D881CF26F0F29017C066
:0C00480000F016C001F015C00CF0110013
:0600540000000000120094
:10005A000F0E0C6E470E0D6E0D2EFED70C2EFCD712
:06006A000000000012007E
:0A007000210E0D6E0D2EFED71200BA
:10007A002DBE02D0839E01D0838E2DBC02D0839CDC
:10008A0001D0838C2DBA02D0839A01D0838A2DB8ED
:10009A0002D0839801D0838825B002D0838401D00E
:1000AA0083948386D2DF83962DB602D0839E01D0B5
:1000BA00838E2DB402D0839C01D0838C2DB202D0C2
:1000CA00839A01D0838A2DB002D0839801D0838885
:1000DA0025B002D0838401D083948386B6DF8396C9
:0C00EA0025A002D0B5DF01D0BEDF12005F
:1000F600086A080E0C6E003408360450085ED8B044
:0E01060002D00826D89000360C2EF5D7120035
:0C01140025902CC02DF0AFDF25801200DC
:10012000326A030E325C0AE232503024E16E000E75
:100130003120E26E200EE66E322AF3D732503024A0
:10014000E16E000E3120E26EE66A32063250302453
:10015000336E000E3120346E0A0E046E2FC000F094
:10016000CADF08C000F0300E002633C0E1FF34C003
:10017000E2FF00C0E6FF0A0E046E2FC000F0BBDFF6
:1001800000C02FF00050000A01E102D03206DED795
:0201900012005B
:100192000900F5CFE6FF0006FBE10106F9E11200D6
:1001A2000FD0800E276E19D0C00E276E16D0940E77
:1001B200276E13D0D40E276E10D0800E276E0DD06E
:1001C2002750010AEEE02750020AEEE02750030A08
:1001D200EEE02750040AEEE0F0D72804006E275024
:1001E200002600C027F000C02DF046DF25902B6AC4
:1001F2002B502924E96E000E2A20EA6EEE520BE003
:100202002B502924E96E000E2A20EA6EEECF2CF044
:0A02120080DF2B2AEDD725801200B3
:10021C00959695949598959A959C959E839683948E
:10022C00839E839C839A839812DF11DF10DF838A6D
:10023C008388838609DF83960ADF838605DF8396AE
:10024C0006DF838601DF839602DF83988386FCDEDC
:10025C008396FDDE8386F8DE8396839A838E83866F
:10026C00F3DE8396F4DE839E83888386EDDE8396AD
:10027C0083988386E9DE8396EADE8386E5DE8396C1
:10028C0083888386E1DE8396E2DE83988386DCDED8
:10029C008396838E838C838A83888386D5DE83962C
:0602AC00D6DE25801200E1
:1002B200540E186E750E196E720E1A6E6E0E1B6E3D
:1002C2006F0E1C6E3A0E1D6E1E6A1F6A070EC16EFD
:1002D200FF0E936E956AA1DF010E276E010E286E46
:1002E200180E296E000E2A6E5BDF0C0E2D6EC4DE18
:1002F200F19E81CF26F0F290F286F28E010E276EE9
:10030200070E286E210E296E000E2A6E49DFF6D7DF
:02031200FFD713
:020000040030CA
:0D000100220F0EFF0181FF0FC00FE00F4026
:00000001FF
