:040000002FEF00F0EE
:1000080000C015F0F2A206D0F2921650000AD8A449
:10001800160607D0F0A005D0F0901650630AD8A4B1
:08002800162A15C000F01100BA
:10003000086A080E0C6E003408360450085ED8B00A
:0E00400002D00826D89000360C2EF5D71200FC
:10004E000900F5CFE6FF0006FBE10106F9E112001B
:10005E00500E166E3F0E176E060E186E5B0E196E54
:10006E004F0E1A6E660E1B6E6D0E1C6E7D0E1D6E85
:10007E00070E1E6E7F0E1F6E6F0E206E216A070E0C
:10008E00C16E956A966A9382F18AF090F08693809B
:10009E00F18CF292F288F28E0A0E046E16C000F007
:1000AE00C0DF08C000F000C022F00A0E046E16C0B9
:1000BE0000F0B7DF0A0E046EB4DF08C000F000C017
:1000CE0021F0050E846E170EE96E000EEA6E2250B8
:1000DE00E926D8B0EA2AEECF83FF0D0E0C6EFB0E8A
:1000EE000D6E0D2EFED70C2EFCD700000000060E56
:1000FE00846E170EE96E000EEA6E2150E926D8B016
:10010E00EA2AEECF83FF0D0E0C6EFB0E0D6E0D2E3A
:0E011E00FED70C2EFCD700000000BED7FFD786
:020000040030CA
:0D000100220F0EFF0181FF0FC00FE00F4026
:00000001FF
