:1000000053EF00F00000000000EF00F000000000DF
:0A0010000000000000000000F3D71C
:10001C0027C0C9FFC7B002D00000FCD7C9CF00F081
:02002C001200C0
:10002E008290060E026E25C000F026C001F002502E
:10003E0007E001320032019E01BC018EFF0FF8D79E
:10004E0000C027F0E4DF25C027F02736279027369B
:08005E002790DDDF8280120013
:10006600FF0E1B6EFF0E1C6EFF0E1D6EFF0E1E6E2C
:100076001C0E1F6E000E206E270E216E000E226EC5
:10008600949A94969488C66A400EC76EC68A1200E1
:100096000900F5CFE6FF0006FBE10106F9E11200D3
:1000A600156A166A176A020E186EFF0E196E030E8F
:1000B6001A6E9490D5DF17C025F018C026F0B4DF6D
:1000C600B60E0C6ED00E0D6E0D2EFED70C2EFCD776
:1000D600000017C023F018C024F0800E2418006E0C
:1000E600800E1A18005C02E11950235C0EE223C050
:1000F60025F024C026F098DF230E0D6E0D2EFED7B8
:1001060000000000234A242AE8D715C025F016C0AF
:1001160026F08ADF15C023F016C024F0800E2418BE
:10012600006E800E1818005C02E11750235C0EE288
:1001360023C025F024C026F077DF230E0D6E0D2E8A
:10014600FED700000000234A242AE8D7B4D7FFD7F9
:020000040030CA
:0D000100220F0EFF0181FF0FC00FE00F4026
:00000001FF
