:04000000D8EF0EF037
:1000080000C019F001C018F002C017F00CC016F0BB
:100018000DC015F0F5CF1DF0F8CF1AF0F7CF1BF093
:10002800F6CF1CF09EAC8AD09E9CC4CF01F0006A2B
:10003800C3500026000E012200C037F001C038F07E
:100048008BEC08F0000E046E000E056E200E066E96
:10005800770E076E75EC05F000C033F001C034F080
:1000680002C035F003C036F000C004F001C005F04E
:1000780002C006F003C007F0000E006E000E016E0D
:10008800200E026E810E036ED3EC06F0000E046E95
:10009800000E056E000E066E7F0E076E6EEC04F005
:1000A800000E046E600E056E6A0E066E8C0E076EEC
:1000B80075EC05F000C02EF001C02FF002C030F042
:1000C80003C031F0000E046ED90E056E780E066E70
:1000D8008F0E076ED3EC06F000C048F001C049F05F
:1000E80002C04AF003C04BF03E0E4C6E260E4D6E19
:1000F800950E4E6E7F0E4F6EC5EC0BF000C02AF0C9
:1001080001C02BF002C02CF003C02DF000C048F055
:1001180001C049F002C04AF003C04BF0390E4C6EE2
:10012800000E4D6E89EC0CF0010E486E010E496E02
:10013800390E4A6E000E4B6E99EC0EF0F2A418D0F0
:10014800F29429C000F0000E29BEFF0E016E00C017
:10015800D7FF28C0D6FF006A81B0002A000E016EC2
:10016800004A012A00B002D0819001D08180C28467
:100178001DC0F5FF1AC0F8FF1BC0F7FF1CC0F6FF33
:1001880019C000F018C001F017C002F016C00CF03A
:0601980015C00DF011007E
:10019E000B820BAED9EF00F00368026801680068AD
:0801AE000A360232FF0E1200B6
:0E01B600026A016A006A086A036A000E1200FB
:0801C4000AAE029E000E1200BB
:1001CC000B840BAEF1EF00F0010E036E026A016AB4
:0A01DC00006A0A360232FF0E12001C
:1001E6000CB035EF01F00CA2DBEF01F00E6A000E49
:1001F60002644CEF01F0F00E0214D8A417EF01F0E0
:10020600023A01380F0B02260138F00B016E003856
:100216000F0B01260038F00B006E08380F0B002676
:100226000838F00B086E0E84D89002BE30EF01F04D
:1002360008360036013602360E2A02BE30EF01F0CD
:1002460008360036013602360E2A02BE30EF01F0BD
:1002560008360036013602360E2A0E500364D1EFF8
:1002660001F0035E0BBC08AED6EF01F0D880800E1D
:1002760008640030000E002201220222D8A0D6EF28
:1002860001F0023201320032034ADBEF01F0D6EF11
:1002960001F001C002F000C001F008C000F0086AD9
:1002A600000E0E86026483EF01F0F00E0214D8A44D
:1002B6006BEF01F0023A01380F0B02260138F00B02
:1002C600016E00380F0B01260038F00B006E0E840D
:1002D600D89002BE30EF01F00036013602360E2A03
:1002E60002BE30EF01F00036013602360E2A02BE9B
:1002F60030EF01F00036013602360E2A30EF01F0FB
:1003060001C002F000C001F0006A000E0E960E88D1
:100316000264B0EF01F0F00E0214D8A49BEF01F0D6
:10032600023A01380F0B02260138F00B016E0E84DB
:10033600D89002BE30EF01F0013602360E2A02BE18
:1003460030EF01F0013602360E2A02BE30EF01F020
:10035600013602360E2A30EF01F001C002F0016AC2
:10036600000E0E860264E0EF01F0F00E0214D8A42F
:10037600BFEF01F0023A0E84D89002BE30EF01F0D2
:1003860002360E2A02BE30EF01F002360E2A02BEF7
:1003960030EF01F002360E2A30EF01F0010E0C6E3E
:1003A60012DFE3EF01F0020E0C6E09DFE3EF01F05E
:1003B600040E0C6EF1DEE3EF01F0080E0C6EF8DEB3
:0203C600120023
:1003C8000B800BAEF0EF01F0026A0AAEFF0E026E70
:0C03D800016E006E0A360232FF0E1200A9
:1003E400025006180E6E086A096A0B6A0350076405
:1003F400E5EF02F006500A6E068E028E03500B6E75
:100404000750036E000E0B6435EF02F00B50075ECD
:10041400D8B4D6EF02F0070E0764A4EF02F0075E2B
:1004240000C008F001C000F002C001F0026A074EEB
:10043400D6EF02F0076479EF02F0075E00C008F01F
:1004440001C000F0016A074ED6EF02F0076457EFCF
:1004540002F0075E00C008F0006A074ED6EF02F013
:1004640007643EEF02F00AC002F005C001F004C0C8
:1004740000F0086AFFEF03F0030E076449EF02F08F
:10048400075E08380F0B086E074ED6EF02F0D890BF
:100494000832074ED6EF02F0D8900832074ED6EF56
:1004A40002F0D8900832D6EF02F0030E076468EF2A
:1004B40002F0075E08380F0B086E0038F00B0826B0
:1004C40000380F0B006E074ED6EF02F0D8900032C2
:1004D4000832074ED6EF02F0D89000320832074EA9
:1004E400D6EF02F0D89000320832D6EF02F0030EB5
:1004F400076490EF02F0075E08380F0B086E0038AF
:10050400F00B082600380F0B006E0138F00B0026A4
:1005140001380F0B016E074ED6EF02F0D89001326E
:1005240000320832074ED6EF02F0D8900132003282
:100534000832074ED6EF02F0D8900132003208326A
:10054400D6EF02F0030E0764C1EF02F0075E08382D
:100554000F0B086E0038F00B082600380F0B006EE6
:100564000138F00B002601380F0B016E0238F00B36
:10057400012602380F0B026E074ED6EF02F0D89018
:100584000232013200320832074ED6EF02F0D89020
:100594000232013200320832074ED6EF02F0D89010
:1005A4000232013200320832096A000E0EAECAEF7E
:1005B40003F0081E001E011E021E082A002201224A
:1005C4000222CAEF03F00750D8A4EBEF02F0FFEFCA
:1005D40003F0096A02C00AF0028E068E0750035C1B
:1005E400076ED8B4BDEF03F0070E07648BEF03F07A
:1005F400075E0450096E0550046E0650056E066AC7
:10060400074EBDEF03F0070E076460EF03F0075ECB
:100614000450096E0550046E056A074EBDEF03F0E1
:10062400070E07643EEF03F0075E0450096E046A88
:10063400074EBDEF03F0070E076425EF03F00AC071
:1006440002F0FFEF03F0030E076430EF03F0075EE0
:1006540009380F0B096E074EBDEF03F0D89009322D
:10066400074EBDEF03F0D8900932074EBDEF03F0FB
:10067400D8900932BDEF03F0030E07644FEF03F087
:10068400075E09380F0B096E0438F00B092604388D
:100694000F0B046E074EBDEF03F0D89004320932FD
:1006A400074EBDEF03F0D89004320932074EBDEF78
:1006B40003F0D89004320932BDEF03F0030E07644F
:1006C40077EF03F0075E09380F0B096E0438F00B5F
:1006D400092604380F0B046E0538F00B0426053880
:1006E4000F0B056E074EBDEF03F0D89005320432B0
:1006F4000932074EBDEF03F0D890053204320932B7
:10070400074EBDEF03F0D890053204320932BDEF35
:1007140003F0030E0764A8EF03F0075E09380F0B1C
:10072400096E0438F00B092604380F0B046E0538E3
:10073400F00B042605380F0B056E0638F00B052662
:1007440006380F0B066E074EBDEF03F0D890063245
:10075400053204320932074EBDEF03F0D890063259
:10076400053204320932074EBDEF03F0D890063249
:10077400053204320932086A000E0EAECAEF03F0E5
:10078400091E041E051E061E092A0422052206222D
:100794000950082604500022055001220650022266
:1007A4000EBEE1EF03F0D8A0F0EF03F00232013205
:1007B40000320832033EF0EF03F0FAEF03F0D8B052
:1007C400F5EF03F0000E081E001E011E021E082A8B
:1007D4000022012202220A7EF5EF03F0010E0C6EC4
:1007E40000DD01EF04F0020E0C6EFBDC01EF04F0FF
:1007F400040E0C6ED2DC01EF04F0000E0C6E12003D
:0A080400210E0D6E0D2EFED712001E
:10080E000A6A0350D8A40A800750D8A40A820A5054
:10081E00D8B46AEF04F0030AD8B423EF04F00AB098
:10082E001EEF04F006AE68EF04F066EF04F002AEC1
:10083E0066EF04F068EF04F00250800B0A6E029E21
:10084E000650800B069E0A18D8B434EF04F00A50F6
:10085E00D8B466EF04F068EF04F00750035CD8B428
:10086E003EEF04F0D8A05AEF04F060EF04F006500B
:10087E00025CD8B448EF04F0D8A05AEF04F060EF51
:10088E0004F00550015CD8B452EF04F0D8A05AEF32
:10089E0004F060EF04F00450005CD8B46AEF04F08A
:1008AE00D8B060EF04F00A52D8B468EF04F066EFE7
:1008BE0004F00A52D8B466EF04F068EF04F0D88062
:0E08CE001200D8901200D880D88412001200B8
:0608DC00067E82DD120021
:1008E2000050086E0150006E0250016E0350026EFD
:1008F200036A0B6A0C6A9E0E036E0A6A02AE8EEFE0
:1009020004F0081E001E011E021E082AD8B4002A86
:10091200D8B4012AD8B4022A0A8E020E0C6E62DC06
:020922001200C1
:100924000C6A0E6A0250D8A4ABEF04F001C002F0C6
:1009340000C001F0006A0E860250D8A4ABEF04F0A8
:1009440001C002F0016A0E960E880250D8B4BDEFC1
:1009540004F00E50035ED8A4D8A0C2EF04F0D890DF
:1009640002BEC7EF04F0003601360236032EB2EFA2
:1009740004F0C2EF04F0010E0C6E1BDCCAEF04F0AD
:10098400020E0C6E21DCCAEF04F0040E0C6E18DCAF
:0209940012004F
:0609960000000000120049
:10099C000F0E0C6E470E0D6E0D2EFED70C2EFCD7C7
:0609AC0000000000120033
:1009B2000B6A0C6A086A0350D8B45DEF05F002C0F6
:1009C2000AF0028E9E0E035E03AE4DEF05F0036C3D
:1009D200080E035CD8A01AEF05F0036E083600C0BB
:1009E20008F001C000F002C001F0026A080E035CC8
:1009F200D8A01AEF05F0036E083600C008F001C057
:100A020000F0016A080E035CD8A01AEF05F0036E2D
:100A1200083600C008F0006A080E035CD8A01AEF7E
:100A220005F0036E0836086A0350D8A4D89026EF62
:100A320005F00350D8B426EF05F0D8900232013207
:100A420000320832032E1EEF05F00BBC08A037EF70
:100A520005F0D8A037EF05F0082AD8B4002AD8B498
:100A6200012AD8B4022A02BE61EF05F00AAE5DEF98
:100A720005F0021E011E001E081E082AD8B4002A14
:100A8200D8B4012AD8B4022A5DEF05F0026A016ADD
:100A9200006A086A5DEF05F00B800BAE67EF05F0A8
:100AA200026A0AAE67EF05F0026E016E006E086E12
:100AB2000A36023267EF05F00C6A000E68EF05F0A5
:100AC200010E0C6E000E7FDC68EF05F0FF0E025087
:100AD200036E0150026E0050016E0850006E12004B
:080AE2000B6A0B86FF0E1200E7
:100AEA00086A096A000E07620364FAEF05F0025009
:100AFA0006180A6E075003267E0ED8A08BEF05F063
:100B0A00035ED8B0FFEF05F08FEF05F0035ED8A0C3
:100B1A0004EF06F0028E068E02C00EF001C00BF042
:100B2A0000C00DF000500402F4CF0CF00150050291
:100B3A00F4CF00F0F3CF08F00402F3500C26F4507F
:100B4A000822000E00220D500502F3500C26F45024
:100B5A000822000E002202500402F3500826F45024
:100B6A00002202500502016A000E0122F3500026FB
:100B7A00F45001220D500602F3500826F4500022C8
:100B8A00026A000E012202220B500602F3500026CE
:100B9A00F4500122000E02220E500602F3500126E2
:100BAA00F450022202BEE2EF05F0083600360136A2
:100BBA0002360306D8B404EF06F0F5EF05F0D88044
:100BCA00800E08640030000E002201220222D8A002
:100BDA00F5EF05F0023201320032034AFFEF05F069
:100BEA000AAE029E000E07EF06F0010EDBEC00F0E3
:100BFA0007EF06F0020ECFEC00F007EF06F0040E46
:060C0A00E6EC00F0120010
:100C1000600E666E000E676E030E6624D96E000EBF
:100C20006720DA6EDE506424016E000E6520026ECD
:100C300001C064F002C065F0800E0218006E800EE4
:100C4000005C02E1000E015C05E2006A016A026AD2
:100C5000036A3ED0800E006E800E6518005C02E1D3
:100C60006450FF0825E2046A056A066A076A60C0E4
:100C700000F061C001F062C002F063C003F0C7DDA4
:100C8000010ED8B0000E006E005209E0FF0E006E9B
:100C9000FF0E016EFF0E026EFF0E036E19D0FF0EE7
:100CA000006EFF0E016E7F0E026EFF0E036E10D0FF
:100CB000030E6624E16E000E6720E26E64C0E6FF5C
:100CC00060C000F061C001F062C002F063C003F0D8
:020CD000120010
:100CD2000B6A0350D8B4AFEF06F002500A6E028ED0
:100CE2008E0E035E03AEB3EF06F0036C080E035CD8
:100CF200D8A08EEF06F0036E013602C001F0026A40
:100D0200080E035CD8A08EEF06F0036E0136016A6E
:100D12000350D8A4D89098EF06F00350D8B498EFB7
:100D220006F0D89002320132032E92EF06F00BBC8D
:100D320001A0A5EF06F0D8A0A5EF06F0012AD8B4CD
:100D4200022A02BEC2EF06F00AAEC8EF06F0021E89
:100D5200011E012AD8B4022AC8EF06F0026A016A0B
:100D6200C8EF06F00B800BAECCEF06F0026A0AAEBB
:100D7200CCEF06F0FF0E026E016E0A360232CCEFA5
:100D820006F0010E0C6EE4EC01F0CEEF06F0000E60
:100D92000C6ECEEF06F0FF0E0C6E0150006E02508C
:040DA200016E1200CC
:100DA6000450000A12E10550000A0FE10650000A3D
:100DB6000CE10750000A09E1FF0E006EFF0E016EFE
:100DC6007F0E026EFF0E036EA7D0086A096A0750EF
:100DD600D8B47EEF07F00350D8B482EF07F0025084
:100DE60006180A6E028E068E0E6A02C008F001C050
:100DF6000CF000C00DF004500D5E0550D8A0053C67
:100E06000C5E0650D8A0063C085E086A0C6A0D6A9D
:100E1600D8A015EF07F0D89002320132003208321E
:100E2600010E0E6E0750035ED8A022EF07F07E0E6D
:100E36000E240326D8B087EF07F028EF07F07E0EC2
:100E46000E240326D8A08CEF07F0180E0B6E0D3675
:100E56000C3608360036013602360E360450005E71
:100E66000550D8A0053C015E0650D8A0063C025E9F
:100E760006340E120EA043EF07F00D804EEF07F07A
:100E8600045000260550D8B0053C01260650D8B0BF
:100E9600062802260D900B2E2AEF07F074EF07F0B6
:100EA600D8900036013602360E360450005E0550E4
:100EB600D8A0053C015E0650D8A0063C025E06346A
:100EC6000E10010B0D26D8B00C2AD8B4082AD8A4C7
:100ED60074EF07F008320C320D32032AD8B487EFCC
:100EE60007F00AAE089E0850026E0C50016E0D50B7
:100EF600006E8FEF07F0010EF1DD8FEF07F0020EA7
:100F0600DBEC00F08FEF07F0040ECFEC00F08FEF74
:0A0F160007F0080EE6EC00F01200F0
:100F200003500718D8A4A4EF07F002500618D8A45D
:100F3000A4EF07F001500518D8A4A4EF07F0005063
:0E0F40000418D8B4D8841200D89412001200FD
:100F4E0067C000F068C001F0000E68BEFF0E026EB2
:100F5E00036E0036009001360236033600360090DE
:100F6E0001360236033664500024F66E65500120B9
:100F7E00F76E66500220F86E0900F5CF69F0090091
:100F8E00F5CF6AF00900F5CF6BF00900F5CF6CF0E4
:100F9E006750681048E060C000F061C001F062C0A8
:100FAE0002F063C003F069C004F06AC005F06BC0C4
:100FBE0006F06CC007F092DD010E675E000E685AF7
:100FCE0067C004F068C005F0000E68BEFF0E066E26
:100FDE00076E04360490053606360736043604903E
:100FEE0005360636073664500424F66E6550052025
:100FFE00F76E66500620F86E0900F5CF04F0090072
:10100E00F5CF05F00900F5CF06F00900F5CF07F092
:10101E00F2EC01F000C069F001C06AF002C06BF0A2
:10102E0003C06CF0B5D769C000F06AC001F06BC0A8
:08103E0002F06CC003F0120087
:10104600600E046E000E056E030E0424E96E000E9B
:101056000520EA6E7E0EEE5C006E016A000E015AF5
:1010660064C0E1FF65C0E2FF00C0E6FF01C0E6FF25
:10107600030E0424E16E000E0520E26E7E0EE66E7F
:1010860060C000F061C001F062C002F063C003F00E
:02109600120046
:1010980060BE02D0839E01D0838E60BC02D0839C48
:1010A80001D0838C60BA02D0839A01D0838A60B859
:1010B80002D0839801D0838832B002D0838401D0D3
:1010C8008394838664DC839660B602D0839E01D0C5
:1010D800838E60B402D0839C01D0838C60B202D02E
:1010E800839A01D0838A60B002D0839801D0838824
:1010F80032B002D0838401D08394838648DC8396FF
:0E11080032A002D047DC02D002EC04F012004C
:1011160000C008F00150006E016A026A036A0B6A99
:101126000C6A016A026A036A960E036E0A6A00AEC8
:10113600A3EF08F0081E001E082AD8B4002A0A8E5B
:1011460000C001F008C000F0086A026A92EC04F0E0
:02115600120085
:1011580063C000F0016A026A036AFF0E0016000EFF
:10116800011600C068F001C069F07F0E005C026ED5
:10117800000E0158036E02C068F003C069F0800ECB
:101188000318006E800E005C02E1000E025C22E291
:10119800046A056A066A076A60C000F061C001F067
:1011A80062C002F063C003F007EC04F0010ED8B08F
:1011B800000E006E005209E0000E006E000E016E77
:1011C800800E026E7F0E036E5BD0006A016A026AAF
:1011D800036A56D06950000802E16850180809E20D
:1011E80060C000F061C001F062C002F063C003F0AB
:1011F80047D060C000F061C001F062C002F063C077
:1012080003F0D9EC04F071EC04F000C064F001C004
:1012180065F002C066F003C067F000C004F001C0CA
:1012280005F002C006F003C007F060C000F061C01E
:1012380001F062C002F063C003F007EC04F0010E95
:10124800D8B0000E006E005213E0000E046E000EBF
:10125800056E000E066E7F0E076E64C000F065C056
:1012680001F066C002F067C003F06EEC04F008D02D
:1012780064C000F065C001F066C002F067C003F00A
:02128800120052
:0C128A00329056C060F003DF328012008A
:1012960056C004F057C005F058C006F059C007F014
:1012A600006A016A026A036A07EC04F0000ED8B00D
:1012B600010E006E005205E0006A016A026A036AC6
:1012C60069D056C060F057C061F058C062F059C08E
:1012D60063F05A0E646E000E656EB2DE000E046E8A
:1012E600000E056E000E066E800E076E75EC05F09C
:1012F600000E046E000E056E000E066E7F0E076E63
:101306006EEC04F000C056F001C057F002C058F071
:1013160003C059F0010E5A5E000E5B5A00C060F021
:1013260001C061F002C062F003C063F0140E646E87
:101336001E0E656E000E666E080E676E000E686EF7
:1013460003DE00C05CF001C05DF002C05EF003C0C9
:101356005FF05CC056F05DC057F05EC058F05FC0ED
:1013660059F05AC000F05BC001F0D2DE180E046ED0
:10137600720E056E310E066E7E0E076E75EC05F06A
:101386005CC004F05DC005F05EC006F05FC007F00B
:06139600F2EC01F0120070
:10139C0056C004F057C005F004C002F005C003F0BD
:1013AC00044A052A58C000F059C001F0584A592A7D
:1013BC0000C0E9FF01C0EAFF02C0E1FF03C0E2FF89
:1013CC00EECFE6FF02C0E9FF03C0EAFFEE5201E0F8
:0C13DC00E3D756C000F057C001F012002B
:1013E800046A056A066A076A56C000F057C001F029
:1013F80058C002F059C003F08FDD010ED8A4000ECA
:10140800006E005209E0000E006E000E016E000E24
:10141800026E7F0E036EFBD056C004F057C005F075
:1014280058C006F059C007F0FC0E006ED40E016ECD
:10143800320E026E850E036E07EC04F0010ED8B072
:10144800000E006E005209E0FF0E006EFF0E016EE6
:101458007F0E026EFF0E036EDAD04F0E046EAC0ED6
:10146800056EAE0E066E850E076E56C000F057C0AC
:1014780001F058C002F059C003F007EC04F0010E67
:10148800D8B0000E006E005205E0006A016A026AD8
:10149800036ABDD0046A056A066A076A56C000F086
:1014A80057C001F058C002F059C003F007EC04F02F
:1014B800010ED8B0000E006E00C05CF00052D8A437
:1014C800587E56C000F057C001F058C002F059C00D
:1014D80003F03B0E046EAA0E056E380E066E7F0EE4
:1014E800076E75EC05F000C056F001C057F002C059
:1014F80058F003C059F000C060F001C061F002C0AC
:1015080062F003C063F024DE69EC06F000C05AF014
:1015180001C05BF0FCDD00C004F001C005F002C0B2
:1015280006F003C007F056C000F057C001F058C0DD
:1015380002F059C003F06EEC04F000C056F001C090
:1015480057F002C058F003C059F000C060F001C065
:1015580061F002C062F003C063F0EC0E646E1D0E11
:10156800656E000E666E090E676E000E686EEBDC27
:1015780000C060F001C061F002C062F003C063F017
:101588005AC064F05BC065F008EC06F000C056F085
:1015980001C057F002C058F003C059F05C522FE068
:1015A800FF0E046EFF0E056E7F0E066EFF0E076EB1
:1015B80056C000F057C001F058C002F059C003F0FF
:1015C800ABDC010ED8A4000E006E005205E0006AE4
:1015D800016A026A036A1BD056C004F057C005F0BE
:1015E80058C006F059C007F0000E006E000E016EDC
:1015F800000E026E7F0E036ED3EC06F008D056C0C4
:1016080000F057C001F058C002F059C003F01200B2
:101618000D6A086A0050D8B4000C04180A6E0ABE95
:101628000D1E0B6A04AE02D0041E042A00AE02D0BE
:10163800001E002A005004100A6E0ABE1FD0045073
:10164800085E003600340836045008260036060EB8
:101658000C6E00340836045000B0085E00A008265E
:1016680000360C2EF6D700A008260BB015D00DAE0C
:10167800000C001E002A081E082A000C04AE09D01F
:1016880000BE04D00050086E006AF1D7006A002A34
:10169800000C001E0B2AD3D7082A0450085CD8A4D3
:0E16A800E6D7086A002A00AEE2D7FF0C120057
:1016B600959695949598959A959C959E83968394E0
:1016C600839E839C839A8398CEEC04F0CEEC04F040
:1016D600CEEC04F0838A83888386CBEC04F0839671
:1016E600CEEC04F08386CBEC04F08396CEEC04F0CB
:1016F6008386CBEC04F08396CEEC04F08398838645
:10170600CBEC04F08396CEEC04F08386CBEC04F0AD
:101716008396839A838E8386CBEC04F08396CEECF5
:1017260004F0839E83888386CBEC04F083968398AB
:101736008386CBEC04F08396CEEC04F08386CBEC68
:1017460004F0839683888386CBEC04F08396CEECF4
:1017560004F083988386CBEC04F08396838E838C87
:10176600838A83888386CBEC04F08396CEEC04F0E0
:0417760032801200AB
:10177A000900F5CFE6FF0006FBE10106F9E11200D8
:10178A00546A046A056A066A076A4CC000F04DC0CA
:10179A0001F04EC002F04FC003F090EC07F0010ECA
:1017AA00D8A4000E006E005209E0000E006E000E72
:1017BA00016E000E026E7F0E036EA5D0046A056AE2
:1017CA00066A076A48C000F049C001F04AC002F040
:1017DA004BC003F090EC07F0010ED8A4000E006E87
:1017EA00005205E0006A016A026A036A8CD0046A40
:1017FA00056A066A076A48C000F049C001F04AC093
:10180A0002F04BC003F007EC04F0010ED8B0000E52
:10181A00006E00522DE04CC000F04DC001F04EC0E9
:10182A0002F04FC003F0D9EC04F000C050F001C040
:10183A0051F002C052F003C053F071EC04F04CC0F6
:10184A0004F04DC005F04EC006F04FC007F090EC12
:10185A0007F0000ED8A4010E006E005205E0006ADF
:10186A00016A026A036A4FD0010E5014546E4A7E0E
:10187A0048C056F049C057F04AC058F04BC059F01A
:10188A0005DD00C048F001C049F002C04AF003C0BB
:10189A004BF04CC004F04DC005F04EC006F04FC0EE
:1018AA0007F075EC05F000C048F001C049F002C02D
:1018BA004AF003C04BF000C056F001C057F002C016
:1018CA0058F003C059F08BDD00C048F001C049F060
:1018DA0002C04AF003C04BF054520DE0000E481803
:1018EA00006E000E4918016E800E4A18026E000E34
:1018FA004B18036E08D048C000F049C001F04AC036
:08190A0002F04BC003F01200D3
:10191200546A556A48C050F049C051F04AC052F06A
:101922004BC053F05350FF0A08E15250FF0A05E141
:101932005150FF0A02E15050FF0A0CE14CC056F030
:101942004DC057F01E0E586E000E596E26DD030E66
:10195200006EEDD1010E4E6E52AE0ED0800E5218B8
:10196200006E00C052F04E2A4CC0E1FF4DC0E2FFB3
:101972002D0EE66E4C4A4D2A000E006E531808E1F9
:101982000050521805E10050511802E15050000A6F
:101992000BE14CC056F04DC057F0260E586E000EAB
:1019A200596EFBDC006AC3D15350FF0A08E1525062
:1019B200000A05E15150000A02E15050000A0CE110
:1019C2004CC056F04DC057F0220E586E000E596EA4
:1019D200E4DC4EC000F0ABD1000E046E000E056ECA
:1019E200000E066E7F0E076E50C000F051C001F06F
:1019F20052C002F053C003F007EC04F0010ED8B05D
:101A0200000E006E00521CE050C000F051C001F008
:101A120052C002F053C003F0000E046E000E056EB9
:101A2200200E066E820E076E75EC05F000C050F0B7
:101A320001C051F002C052F003C053F05506CCD79A
:101A4200000E046E000E056E200E066E820E076EEC
:101A520050C000F051C001F052C002F053C003F078
:101A620007EC04F0000ED8B0010E006E00521CE02C
:101A720050C000F051C001F052C002F053C003F058
:101A8200CD0E046ECC0E056E4C0E066E7B0E076EEE
:101A920075EC05F000C050F001C051F002C052F0E8
:101AA20003C053F0552ACCD7FF0E5014086EFF0E18
:101AB2005114096E7F0E52140A6E000E53140B6EEF
:101AC20008C004F009C005F00AC006F00BC007F018
:101AD20004360490053606360736000E5014006EA2
:101AE200000E5114016E000E5214026EFF0E5314BA
:101AF200036E00C050F001C051F002C052F003C0AA
:101B020053F004505010006E05505110016E0650F3
:101B12005210026E07505310036E00C050F001C005
:101B220051F002C052F003C053F07F0E535C006EBE
:101B320000C04FF0010E536E00C004F050C000F020
:101B420051C001F052C002F053C003F0045007E04C
:101B520000360090013602360336FF0FF8D700C078
:101B620050F001C051F002C052F003C053F04CC01B
:101B7200E1FF4DC0E2FF5350300FE66E4C4A4D2A52
:101B8200800E5518006E800E010A005C08E3800E7C
:101B9200060A006E800E5518005C01E30AD04CC0A4
:101BA200E1FF4DC0E2FF2E0EE66E4C4A4D2A010EB9
:101BB200546E060E4F6E4F50000A54E0536A50C0E6
:101BC20000F051C001F052C002F053C003F00036E1
:101BD2000090013602360336003600900136023696
:101BE20003365050002651500122525002225350C7
:101BF200032200C050F001C051F002C052F003C0F5
:101C020053F050C000F051C001F052C002F053C076
:101C120003F00036009001360236033600C050F061
:101C220001C051F002C052F003C053F04CC0E1FFBA
:101C32004DC0E2FF5350300FE66E4C4A4D2A5450CD
:101C4200000A0EE155065550000A0AE14CC0E1FFB8
:101C52004DC0E2FF2E0EE66E4C4A4D2A010E546E26
:101C62004F06A9D7FF0E4C24E96EFF0E4D20EA6EF7
:101C7200EE50300A05E1010E4C5E000E4D5AF2D7CD
:101C8200FF0E4C24E96EFF0E4D20EA6EEE502E0A36
:101C920004E1010E4C5E000E4D5A5550000A41E01F
:101CA2004CC0E1FF4DC0E2FF650EE66E4C4A4D2A84
:101CB200800E5518006E800E000A005C0BE24CC0CC
:101CC200E1FF4DC0E2FF2D0EE66E4C4A4D2A555003
:101CD2000008556E55C04FF0800E090A006E800E46
:101CE2005518005C0EE20A0E046E4FC000F093DC41
:101CF2004CC0E1FF4DC0E2FF0050300FE66E4C4A8F
:101D02004D2A0A0E046E4FC000F085DC08C000F0B8
:101D12004CC0E1FF4DC0E2FF0050300FE66E4C4A6E
:101D22004D2A4CC0E1FF4DC0E2FFE66A006A120094
:101D32000FD0800E486E19D0C00E486E16D0940E89
:101D4200486E13D0D40E486E10D0800E486E0DD05F
:101D52004850010AEEE04850020AEEE04850030AF9
:101D6200EEE04850040AEEE0F0D74904006E485015
:101D7200002600C048F000C060F04CEC08F0329041
:101D82004C6A4C504A24E96E000E4B20EA6EEE5229
:101D92000CE04C504A24E96E000E4B20EA6EEECF66
:0E1DA20056F045EC09F04C2AECD732801200C6
:101DB00022EC0FF0140ED56E9390B10EC26E820E0F
:101DC000C16E9E9C9D8CF28AF294F28CF28E29C098
:101DD00000F0000E29BEFF0E016E00C0D7FF28C024
:0C1DE000D6FFD58E68DCC284FFD7FFD789
:101E440010EE1EF00C0E006E010E016E380EF66ED2
:0E1E54001E0EF76E000EF86EBDEC0BF01200C5
:101DEC000000007F1872317EF0FD757C4758637AD5
:101DFC0058951D7882C42E75A8782172EF93006FC8
:081E0C00A092276B46561568F1
:101E1400FFE65B5DC4FF7F7E80EFFF7D90E1297D5F
:101E2400EC82F67C82AD2B7C0E3CC37B87D1137A8B
:041E34004178D377A7
:041E38004E614E00A9
:041E3C00494E4600C5
:021E4000300070
:021E4200DC0BB7
:020000040030CA
:0D000100220F0EFF0181FF0FC00FE00F4026
:00000001FF
