:040000004BEF00F0D2
:1000080000C017F001C016F002C015F0F2A430D0FD
:10001800F2941BC000F0000E1BBEFF0E016E00C064
:10002800D7FF1AC0D6FF1BD080A004D0186A8280E0
:10003800010E196E1DD01850190A04E180A002D0D3
:10004800020E196E1850190A04E180B002D0196A1C
:100058008290182A0DD0186A010E196E09D019500D
:10006800000AE2E01950010AE6E01950020AF3E03A
:0E00780017C000F016C001F015C002F0110014
:100086000900F5CFE6FF0006FBE10106F9E11200E3
:10009600186A196AC00E1A6E630E1B6E070EC16EC1
:1000A600F294F28A928092929490120ED56EF28E0B
:1000B6001BC000F0000E1BBEFF0E016E00C0D7FF76
:0C00C6001AC0D6FFD58E0000FED7FFD771
:020000040030CA
:0D000100220F0EFF0181FF0FC00FE00F4026
:00000001FF
