:100000001DEF00F00000000000EF00F00000000015
:0A0010000000000000000000F3D71C
:10001C00086A080E0C6E003408360450085ED8B01E
:0E002C0002D00826D89000360C2EF5D7120010
:10003A003F0E156E060E166E5B0E176E4F0E186E7D
:10004A00660E196E6D0E1A6E7C0E1B6E070E1C6EF6
:10005A007F0E1D6E6F0E1E6E070E1F6E0B0E206E2C
:10006A000D0E216E0E0E226E236A070EC16E946A61
:10007A00956AFF0E936E81CF23F0246A040E245CE6
:10008A002CE20A0E046E23C000F0C3DF08C000F0A1
:10009A00150EE96E000EEA6E0050E926D8B0EA2A7B
:1000AA00EECF82FF1F0EE96E000EEA6E2450E9269B
:1000BA00D8B0EA2AEECF83FF0A0E046E23C000F0FE
:1000CA00A8DF00C023F03F0E0C6E550E0D6E0D2EEC
:0E00DA00FED70C2EFCD7242AD1D7CDD7FFD7C6
:0A00E8003F065B4F666D7C077F6FDB
:0400F200070B0D0EDD
:0100F6000009
:020000040030CA
:0D000100220F0EFF0181FF0FC00FE00F4026
:00000001FF
