:0400000066EF00F0B7
:1000080000C017F001C016F002C015F0F2A44BD0E2
:10001800F2941AC000F0000E1ABEFF0E016E00C066
:10002800D7FF19C0D6FF30D081A00AD080A408D04D
:10003800010E186E8386829682808390829C0BD0F4
:1000480080A009D081A407D0030E186E83968296EB
:1000580082908390828C27D080A804D0020E186EDC
:100068008286829020D080A002D0186A82961BD007
:1000780081A804D0040E186E8380829C14D081A0BD
:1000880002D0186A83900FD01850000ACDE018509B
:10009800010AE2E01850020AE6E01850030AE8E014
:1000A8001850040AECE017C000F016C001F015C0A3
:0400B80002F0110041
:1000BC000900F5CFE6FF0006FBE10106F9E11200AD
:1000CC00186A840E196E6D0E1A6EFF0E926EFF0E6C
:1000DC00936E946A956A070EC16EF294F28A110EB1
:1000EC00D56EF28E1AC000F0000E1ABEFF0E016E15
:1000FC0000C0D7FF19C0D6FFD58E0000FED7FFD7A2
:020000040030CA
:0D000100220F0EFF0181FF0FC00FE00F4026
:00000001FF
