:0400000058EF00F0C5
:1000080000C017F001C016F002C015F0F2A43DD0F0
:1000180022D080A004D081908086010E196E2AD04B
:1000280081AC05D080968190186A020E196E22D094
:100038001850280A04E1030E196E81808096182A48
:1000480019D081A804D081908098040E196E12D01E
:1000580080A0196A0FD01950000ADBE01950010A74
:10006800DFE01950020AE4E01950030AEAE01950E7
:10007800040AEEE0F2941BC000F0000E1BBEFF0E57
:10008800016E00C0D7FF1AC0D6FF17C000F016C017
:0800980001F015C002F0110097
:1000A0000900F5CFE6FF0006FBE10106F9E11200C9
:1000B000186A196AB00E1A6E3C0E1B6E070EC16EDE
:1000C000010E926E93909388938C110ED56EF294DC
:1000D000F28AF28E1BC000F0000E1BBEFF0E016EF6
:1000E00000C0D7FF1AC0D6FFD58E0000FED7FFD7BD
:020000040030CA
:0D000100220F0EFF0181FF0FC00FE00F4026
:00000001FF
